:100000000C9460010C9491010C9491010C94910159
:100010000C9491010C9491010C9491010C94910118
:100020000C9491010C943B090C9411090C94DB087D
:100030000C9491010C9491010C9491010C949101F8
:100040000C9491010C9491010C9491010C949101E8
:100050000C9491010C9491010C9491010C94D10792
:100060000C9491010C94A5080C947B080C949101BC
:100070000C9491010C9491010C9491010C949101B8
:100080000C9491010C9491010C9491010C949101A8
:100090000C9445080C941B080C9491010C9491014C
:1000A0000C9491010C9491010C9491010C94910188
:1000B0000C9491010C9491010C9491010C94910178
:1000C0000C9491010C9491010C9491010C94910168
:1000D0000C9491010C9491010C9491010C94910158
:1000E0000C9491010C94F9040C94F9010C94BE0346
:1000F0000C94E2010C94E6010C94FB020C94EF01C9
:100100000C940B020C94DA010C94E2020C940F0391
:100110000C94B4020C94C3010C94AC040C94AA0388
:100120000C9471050C9415020C94C6020C942303D4
:100130000C94DE010C940E040C94BE020C949B03F0
:100140000C940F020C9407020C94DD040C946E03C3
:100150000C94BC040C94CE020C94CF040C94930227
:100160000C94F3010C9401020C94A0020C94D8029C
:100170000C94EC020C94C8010C94B5040C94AA02E3
:100180000C942D030C9405030C94540A0C945B04FA
:100190000C94FD010C94E9010C9419020C941903C0
:1001A0000C94CC030C94C6040C94A8040C94D304B3
:1001B0000C949B020C947B05000021002400270076
:1001C0002A002D0030003300010100000401070166
:1001D0000A0100002200250028002B002E0031001B
:1001E000340002010000050108010B0105050505A9
:1001F000070508080808020202020A0A080804049F
:1002000004040101010101010101030303030303CC
:100210000303040707070C0C0C0C0C0C0C0C02025B
:10022000020206060606060606060B0B0B0B0B0B58
:100230000B0B0102102020080810204010204080E5
:10024000020102010804020101020408102040809A
:100250008040201008040201800402018040201028
:100260000804020108040201010204081020408071
:10027000010204081020408000000A0B02090C0D46
:100280000E08070304010000000000000000000049
:10029000000000000000000000000000000000005E
:1002A000000000001211100000000000000000001B
:1002B0000000000000000000000000000000540AE0
:1002C00011241FBECFEFD1E2DEBFCDBF00E00CBFD7
:1002D00013E0A0E0B2E0ECE9F5E200E00BBF02C001
:1002E00007900D92A830B107D9F728E0A8E0B3E055
:1002F00001C01D92A73BB207E1F711E0C0E6D1E0D3
:1003000000E006C021970109802FFE010E94BB1268
:10031000CF35D10780E00807A9F70E94B40D0C94EF
:10032000CC120C940000282F30E0F901E858FD4F62
:100330009491F901EE5CFD4F449124513E4FF90137
:100340002491222309F435C0992311F1915092315F
:10035000F8F4E92FF0E08827EF54FE4F8F4F0C940C
:10036000BB12E201E601C301DA01DE01C801E901C5
:10037000EF01F301F901FD01010207020B02C801BF
:100380000F0215021902809180008F778093800000
:10039000E22FF0E0EE0FFF1FEE52FE4FA591B49159
:1003A0008FB7F894EC91611148C040954E234C935F
:1003B0008FBF0895809180008F7DE8CF809180006D
:1003C000877FE4CF84B58F7784BDE2CF84B58F7DFE
:1003D000FBCF8091B0008F778093B000D9CF809110
:1003E000B0008F7DF9CF809190008F77809390003F
:1003F000CFCF809190008F7DF9CF80919000877F43
:10040000F5CF8091A0008F778093A000C1CF80911D
:10041000A0008F7DF9CF8091A000877FF5CF8091DC
:1004200020018F7780932001B3CF809120018F7DB1
:10043000F9CF80912001877FF5CF4E2BB8CFCF9396
:10044000DF9390E0FC01EE5CFD4F249184519E4FC0
:10045000FC0184918823C9F090E0880F991FFC016A
:10046000E854FE4FA591B491FC01EE52FE4FC591A8
:10047000D49161110DC09FB7F8948C91209582237F
:100480008C938881282328839FBFDF91CF91089583
:10049000623051F49FB7F8943C91822F809583236A
:1004A0008C93E8812E2BEFCF8FB7F894EC912E2B05
:1004B0002C938FBFEACF1F93CF93DF93182FEB01BD
:1004C00061E00E941F02209739F460E0812FDF91E4
:1004D000CF911F910C949301CF3FD10511F461E0AE
:1004E000F5CFE12FF0E0E858FD4FE491E150E23123
:1004F00008F0B3C0F0E08827EF57FD4F8F4F0C9402
:10050000BB1293029B02A002AA02B4022D03BE02F8
:10051000C602CE02D802E202EC02FB0205032D0362
:100520000F031903230384B5806884BDC7BDDF9121
:10053000CF911F91089584B5806284BDC8BDF7CF67
:1005400080918000806880938000D0938900C09360
:100550008800EDCF80918000806280938000D093EE
:100560008B00C0938A00E3CF8091800088608093E5
:100570008000D0938D00C0938C00D9CF8091B000C3
:1005800080688093B000C093B300D1CF8091B00059
:1005900080628093B000C093B400C9CF8091900076
:1005A000806880939000D0939900C0939800BFCF4B
:1005B00080919000806280939000D0939B00C093C4
:1005C0009A00B5CF80919000886080939000D0937E
:1005D0009D00C0939C00ABCF8091A0008068809369
:1005E000A0008091A0008F7B8093A000D093A900F1
:1005F000C093A8009CCF8091A00080628093A0004F
:10060000D093AB00C093AA0092CF8091A0008860E5
:100610008093A000D093AD00C093AC0088CF8091B0
:100620002001806880932001D0932901C093280184
:100630007ECF80912001806280932001D0932B0196
:10064000C0932A0174CF809120018860809320019B
:10065000D0932D01C0932C016ACFC038D1050CF086
:100660003ECF33CF90917B00977F90937B00865352
:10067000806480937C0080917A00806480937A000B
:1006800080917A0086FDFCCF80917800909179006E
:1006900008953FB7F8948091380390913903A09161
:1006A0003A03B0913B0326B5A89B05C02F3F19F034
:1006B0000196A11DB11D3FBFBA2FA92F982F8827E2
:1006C000BC01CD01620F711D811D911D42E0660FBD
:1006D000771F881F991F4A95D1F70895AF92BF924F
:1006E000CF92DF92EF92FF920F931F93CF93DF93FE
:1006F0006C017B018B01040F151FEB015E01AE182D
:10070000BF08C017D10759F06991D601ED91FC914E
:100710000190F081E02DC6011995892B79F7C5016B
:10072000DF91CF911F910F91FF90EF90DF90CF90CD
:10073000BF90AF900895FC01538D448D252F30E07C
:10074000842F90E0821B930B541710F0CF960895DE
:1007500001970895FC01918D828D981761F0A28D0B
:10076000AE0FBF2FB11D5D968C91928D9F5F9F73D1
:10077000928F90E008958FEF9FEF0895FC01918D87
:10078000828D981731F0828DE80FF11D858D90E0F4
:1007900008958FEF9FEF0895FC01918D228D892F91
:1007A00090E0805C9F4F821B91098F739927089579
:1007B0008CE393E00E94CC0321E0892B09F420E034
:1007C000822F089589ED93E00E94CC0321E0892BCC
:1007D00009F420E0822F0895FC01A48DA80FB92F01
:1007E000B11DA35ABF4F2C91848D90E001968F7359
:1007F0009927848FA689B7892C93A089B1898C9178
:10080000837080648C93938D848D981306C00288C6
:10081000F389E02D80818F7D80830895EF92FF9290
:100820000F931F93CF93DF93EC0181E0888F9B8D13
:100830008C8D98131AC0E889F989808185FF15C0CD
:100840009FB7F894EE89FF896083E889F9898081F0
:100850008370806480839FBF81E090E0DF91CF91BF
:100860001F910F91FF90EF900895F62E0B8D10E0E1
:100870000F5F1F4F0F731127E02E8C8D8E110CC050
:100880000FB607FCFACFE889F989808185FFF5CF9B
:10089000CE010E94EC03F1CFEB8DEC0FFD2FF11D8B
:1008A000E35AFF4FF0829FB7F8940B8FEA89FB89D8
:1008B00080818062CFCFCF93DF93EC01888D882336
:1008C000B9F0AA89BB89E889F9898C9185FD03C0B3
:1008D000808186FD0DC00FB607FCF7CF8C9185FF98
:1008E000F2CF808185FFEDCFCE010E94EC03E9CFEE
:1008F000DF91CF91089580E090E0892B29F00E944C
:10090000E20381110E94000080E090E0892B29F031
:100910000E94D80381110E94000080E090E0892BA2
:1009200049F080E090E0892B29F00E9400008111BD
:100930000E94000080E090E0892B49F080E090E088
:10094000892B29F00E94000081110C940000089569
:10095000809103018370089583B190E024E0959520
:1009600087952A95E1F78370089580910601829515
:1009700086958695837008958091060190E024E025
:10098000959587952A95E1F78370089580910601E2
:1009900090E09595879595958795837008958091BA
:1009A000060183700895FC01148A158A168A178A35
:1009B000108A118A128A138A0895CF93DF93EC016B
:1009C000CB01BA012A813B814C815D810E944E128C
:1009D0002A853B854C855D850E94DE0F6A877B8773
:1009E0008C879D876E837F8388879987DF91CF91DE
:1009F00008958F929F92AF92BF92CF92DF92EF9223
:100A0000FF92CF93DF93EC01CB01BA0188889988DC
:100A1000AA88BB88A50194010E94DD0F6B017C01AF
:100A20008C8D882301F12AED3FE049E450E4C701B1
:100A3000B6010E9449121816BCF52BED3FE049ECB7
:100A400050E4C701B6010E94DD0F6B017C012BED64
:100A50003FE049EC50E4C501B4010E94DE0F6C8B0D
:100A60007D8B8E8B9F8B288D398D4A8D5B8DC70139
:100A7000B6010E944F10AB01BC014E835F836887B3
:100A80007987CE010A960E94DD046E817F81888578
:100A90009985DF91CF91FF90EF90DF90CF90BF903D
:100AA000AF909F908F9008952BED3FE049EC50EC74
:100AB000C701B6010E944A1087FFD5CF2BED3FE05A
:100AC00049EC50E4C701B6010E94DE0F6B017C01C6
:100AD0002BED3FE049EC50E4C501B4010E94DD0F6D
:100AE000BECFFC01128613861486158616821782E5
:100AF000108611860895DC01ED91FC910280F3814E
:100B0000E02D1994FC01E85BFF4F118210823896AA
:100B10001082118212821382349710821182128203
:100B20001382FC0117A210A611A612A60895CF9356
:100B3000DF93EC01F894ED85FE85199590E0DE01D8
:100B4000A85BBF4FFE01E65BFF4F20813181220F82
:100B5000331F220F331FC20FD31FC80FD91F4F8956
:100B60002D913C911197240F311D47FD3A952D93FE
:100B70003C93918380837894DF91CF9108952F9255
:100B80003F924F925F926F927F928F929F92AF921D
:100B9000BF92CF92DF92EF92FF920F931F93CF936A
:100BA000DF9300D000D01F921F92CDB7DEB71C019B
:100BB000DC0196960D90BC91A02DBA83A9838D017E
:100BC000085B1F4FF80160817181072E000C880BB4
:100BD000990B0E94F9104B015C01E980FA80FCE559
:100BE000EF0EF11CA981BA8115962D913D914D9181
:100BF0005C9118970E944F10F70160837183828384
:100C00009383E980FA80F0E5EF0EF11CA5019401D1
:100C1000D7016D917D918D919C910E94DE0FF7011E
:100C20006083718382839383A981BA8119962D9100
:100C30003D914D915C911C97C501B4010E944E12EB
:100C4000E980FA80BCE4EB0EF11CF70120813181D0
:100C5000428153810E94DE0FAB01BC01D7014D934D
:100C60005D936D937C93139789819A818B960E94F3
:100C7000F904E981FA81E85AFF4F60837183828326
:100C80009383F80111821082D1019C968D919C91E1
:100C90009D979696ED91FC919797FC83EB83892B1A
:100CA00009F073C0E45BFF4F2081318142815381A1
:100CB000D2966D917D918D919C91D5970E94DD0F7B
:100CC0002BED3FE049EC50E40E947D112BED3FE01D
:100CD00049EC50E40E94DE0F6B017C012BED3FE0FC
:100CE00049E450E40E94491218164CF42BED3FE001
:100CF00049EC50E4C701B6010E94DD0FEDCF2BEDAA
:100D00003FE049E450ECC701B6010E944A1087FF5A
:100D10000BC02BED3FE049EC50E4C701B6010E9447
:100D2000DE0F6B017C01EBCFD10158962D913D91E7
:100D30004D915C915B97C701B6010E944E123B0139
:100D40008C01F101848C958CA68CB78C75016401A3
:100D5000F7FAF094F7F8F094A70196010E944A1070
:100D600087FD0CC0A5019401B301C8010E9449127E
:100D700063017801181614F475016401D1019E967F
:100D8000CD92DD92ED92FC92D197F10104A0F5A1F4
:100D9000E02DFA83E9832B813C81285A3F4FD9010A
:100DA0002D913D914D915C91F10166A577A580A9AA
:100DB00091A90E94DD0F6B017C01D10198964D90A5
:100DC0005D906D907C909B971C962D913D914D91DF
:100DD0005C911F970E944E12A30192010E94DE0FA8
:100DE000062F7F838887192FF10184889588A6882C
:100DF000B788D501C401B0588B839C83AD83BE8373
:100E00009C01AD01602F8885912F0E944A1087FDBB
:100E1000C3C0A5019401602F7F818885912F0E9416
:100E20004912181684F0202F3F814885512F602FDA
:100E30007F818885912F0E944A10802E9F80A884F0
:100E4000B12E882379F0202F3F814885512FC7018B
:100E5000B6010E944E1220E030E0A9010E944A1023
:100E600087FF1DC0D10118962D913D914D915C9148
:100E70001B97C701B6010E944E12F10120893189EA
:100E8000428953890E944E12A30192010E94DE0FF3
:100E9000D10198966D937D938D939C939B97E98157
:100EA000FA816085718590E080E00E94F7109B01D7
:100EB000AC01C501B4010E944F1020E030E04FE7C3
:100EC00053E40E944E120E94C1107C836B83072E54
:100ED000000C880B990B0E94F9106B017C0120E03B
:100EE00030E04FE753EC0E944A1087FD50C020E0ED
:100EF00030E04FE753E4C701B6010E9449121816CB
:100F0000B4F02B813C8137FF16C060E0A981BA8123
:100F10008C910E94930161E0E981FA8182810E94B3
:100F200093016B817C8171956195710912C08FEF7E
:100F300090E09C838B8361E0A981BA818C910E94AF
:100F4000930160E0E981FA8182810E9493016B81C3
:100F50007C81A981BA8114968C9128960FB6F89459
:100F6000DEBF0FBECDBFDF91CF911F910F91FF90DC
:100F7000EF90DF90CF90BF90AF909F908F907F9039
:100F80006F905F904F903F902F900C945B02E1E048
:100F9000FFEFFC83EB83B9CF8B809C80AD80BE805C
:100FA00052CF1F920F920FB60F9211242F933F939F
:100FB0008F939F93AF93BF938091340390913503A8
:100FC000A0913603B09137033091330323E0230F10
:100FD0002D3758F50196A11DB11D20933303809341
:100FE000340390933503A0933603B0933703809175
:100FF000380390913903A0913A03B0913B030196D5
:10100000A11DB11D8093380390933903A0933A0337
:10101000B0933B03BF91AF919F918F913F912F91DF
:101020000F900FBE0F901F90189526E8230F029681
:10103000A11DB11DD2CF1F920F920FB60F92112496
:101040000BB60F922F933F934F935F936F937F93C2
:101050008F939F93AF93BF93EF93FF938CE393E0B2
:101060000E94EC03FF91EF91BF91AF919F918F91FF
:101070007F916F915F914F913F912F910F900BBE98
:101080000F900FBE0F901F9018951F920F920FB6E2
:101090000F9211240BB60F922F938F939F93EF9380
:1010A000FF93E0914C03F0914D038081E091520356
:1010B000F091530382FD1DC09081809155038F5F95
:1010C0008F7320915603821741F0E0915503F0E0B1
:1010D000E45CFC4F958F80935503FF91EF919F91B6
:1010E0008F912F910F900BBE0F900FBE0F901F90FE
:1010F00018958081F2CF1F920F920FB60F92112494
:101100000BB60F922F933F934F935F936F937F9301
:101110008F939F93AF93BF93EF93FF9389ED93E0EA
:101120000E94EC03FF91EF91BF91AF919F918F913E
:101130007F916F915F914F913F912F910F900BBED7
:101140000F900FBE0F901F9018951F920F920FB621
:101150000F9211240BB60F922F938F939F93EF93BF
:10116000FF93E091E903F091EA038081E091EF03BE
:10117000F091F00382FD1DC090818091F2038F5F9A
:101180008F732091F303821741F0E091F203F0E0B6
:10119000E752FC4F958F8093F203FF91EF919F915F
:1011A0008F912F910F900BBE0F900FBE0F901F903D
:1011B00018958081F2CF1F920F920FB60F921124D3
:1011C0000BB60F922F933F934F935F936F937F9341
:1011D0008F939F93AF93BF93EF93FF9387E796E02F
:1011E0000E94970587ED96E00E94970587E397E0B8
:1011F0000E94970587E997E00E949705FF91EF917C
:10120000BF91AF919F918F917F916F915F914F911E
:101210003F912F910F900BBE0F900FBE0F901F901C
:1012200018951F920F920FB60F9211240BB60F92C2
:101230002F933F934F935F936F937F938F939F93DE
:10124000AF93BF93EF93FF9387E598E00E949705D4
:10125000FF91EF91BF91AF919F918F917F916F918E
:101260005F914F913F912F910F900BBE0F900FBE4A
:101270000F901F9018951F920F920FB60F92112486
:101280000BB60F922F933F934F935F936F937F9380
:101290008F939F93AF93BF93EF93FF9387EF97E065
:1012A0000E949705FF91EF91BF91AF919F918F9110
:1012B0007F916F915F914F913F912F910F900BBE56
:1012C0000F900FBE0F901F9018952FB7F894609154
:1012D00034037091350380913603909137032FBF0B
:1012E0000895EF92FF920F931F93CF93DF93CDB7A3
:1012F000DEB78C01698D7A8D8B8D9C8DF801779688
:1013000020E1DF011D922A95E9F7F80117A210A646
:1013100011A612A665A776A787A790AB11AA12AA55
:1013200013AA14AA2EE032E034A723A767AB70AF4C
:1013300081AF92AF13AE14AE15AE16AE24E032E01C
:1013400036AB25ABFF961082118212821382780190
:10135000F3E4EF0EF11C9B01AC010E94DE0FD701FC
:101360006D937D938D939C931397F801E95BFF4FE9
:1013700081E080833D96108211821282138287E180
:10138000FE013A96D80101900D928A95E1F7F80195
:10139000E85BFF4F118210823296118210823296E2
:1013A000108211821282138234961082118212826C
:1013B0001382389610821182128213823496108220
:1013C000118212821382F89460E0F80180810E94F9
:1013D0001F0260E0D80112968C910E941F02E8E67D
:1013E000F0E0808187608083EBE6F0E08081806FB1
:1013F0008083ECE6F0E0808186608083EDE6F0E0BB
:1014000080818FEF8083F8018481818F82A384A300
:10141000838F8195808F868F85A3878F7894DF91C6
:10142000CF911F910F91FF90EF900895CF92DF928F
:10143000EF92FF920F931F93CF93DF9300D000D0D2
:1014400000D01F92CDB7DEB76C01E982FA820B8320
:101450001C832D833E834F83588769877A878AE070
:10146000FE013196D60101900D928A95E1F761E077
:10147000F60180810E941F0261E0F60182810E94D4
:101480001F0261E0F60184812A960FB6F894DEBF50
:101490000FBECDBFDF91CF911F910F91FF90EF90C5
:1014A000DF90CF900C941F02EF92FF920F931F9347
:1014B000CF93DF93CDB7DEB7C85AD1090FB6F894F2
:1014C000DEBF0FBECDBFECE3F3E01382128248EE25
:1014D00053E060E070E0448355836683778388E15E
:1014E00092E0918380832DEC30E0358724872CECCB
:1014F00030E03787268728EC30E0318B208B29ECD1
:1015000030E0338B228B2AEC30E0358B248B2EECB1
:1015100030E0378B268B118E128E138E148EE9EDF0
:10152000F3E0138212824483558366837783918329
:10153000808385EC90E09587848784EC90E09787A2
:10154000868780EC90E0918B808B81EC90E0938B90
:10155000828B82EC90E0958B848B86EC90E0978B6D
:10156000868B118E128E138E148E8DB79EB7479771
:101570000FB6F8949EBF0FBE8DBFADB7BEB7119624
:1015800087E1E1EFF2E001900D928A95E1F787E7BC
:1015900096E00E947109ADB7BEB757970FB6F894A1
:1015A000BEBF0FBEADBF119687E1EAEDF2E001903C
:1015B0000D928A95E1F787ED96E00E9471090FB6CA
:1015C000F894DEBF0FBECDBF8DB79EB747970FB65D
:1015D000F8949EBF0FBE8DBFADB7BEB7119687E121
:1015E000E3ECF2E001900D928A95E1F787E397E052
:1015F0000E947109ADB7BEB757970FB6F894BEBF3A
:101600000FBEADBF119687E1ECEAF2E001900D92BA
:101610008A95E1F787E997E00E9471090FB6F8947F
:10162000DEBF0FBECDBF8DB79EB747970FB6F894FC
:101630009EBF0FBE8DBFADB7BEB7119687E1E5E97E
:10164000F2E001900D928A95E1F787EF97E00E9412
:101650007109ADB7BEB757970FB6F894BEBF0FBEAE
:10166000ADBF119687E1EEE7F2E001900D928A9509
:10167000E1F787E598E00E9471090FB6F894DEBFA4
:101680000FBECDBFE0907402F0907502009176021B
:1016900010917702209178023091790240917A027C
:1016A00050917B0260917C0270917D028BE396E009
:1016B0000E94160AE0906A02F0906B0200916C02A0
:1016C00010916D0220916E0230916F024091700274
:1016D00050917102609172027091730285E496E0FC
:1016E0000E94160AE0906002F0906102009162028E
:1016F000109163022091640230916502409166026C
:101700005091670260916802709169028FE496E0DF
:101710000E94160AE0905602F0905702009158027B
:101720001091590220915A0230915B0240915C0263
:1017300050915D0260915E0270915F0289E596E0D2
:101740000E94160AE0904C02F0904D0200914E0269
:1017500010914F022091500230915102409152025B
:1017600050915302609154027091550283E696E0C5
:101770000E94160AE0904202F09043020091440257
:101780001091450220914602309147024091480253
:101790005091490260914A0270914B028DE696E0A9
:1017A0000E94160A8CE1E6E2F2E0DE011196019059
:1017B0000D928A95E1F727EF34E081E090E0D901BE
:1017C0009D969C938E939C97F90116A617A610AA36
:1017D00011AAD2961D921D921D921C92D5974CE192
:1017E000FE013196AFEFB4E001900D924A95E1F71A
:1017F0004BE356E0F90155A344A347E756E057A34E
:1018000046A32CE1E6E2F2E0DE015D9601900D9246
:101810002A95E1F790935A058093590510925B053C
:1018200010925C0510925D0510925E0510925F05A6
:101830001092600510926105109262052CE1FE0184
:101840007D96A5E3B5E001900D922A95E1F725E498
:1018500036E0309352052093510527ED36E0309362
:101860005405209353052CE1E6E2F2E0DE01D9961F
:1018700001900D922A95E1F79093900580938F0542
:101880001092910510929205109293051092940572
:101890001092950510929605109297051092980552
:1018A0002CE1FE01F996ABE6B5E001900D922A9588
:1018B000E1F72FE436E0309388052093870527E38E
:1018C00037E030938A05209389052CE1E6E2F2E0C7
:1018D000DE01AB5ABF4F01900D922A95E1F790932C
:1018E000C6058093C5051092C7051092C8051092D1
:1018F000C9051092CA051092CB051092CC05109222
:10190000CD051092CE052CE1FE01EB5AFF4FA1EA66
:10191000B5E001900D922A95E1F729E536E0309384
:10192000BE052093BD0527E937E03093C00520931D
:10193000BF052CE1E6E2F2E0DE01AF58BF4F0190B7
:101940000D922A95E1F79093FC058093FB05109288
:10195000FD051092FE051092FF05109200061092F0
:1019600001061092020610920306109204062CE162
:10197000FE01EF58FF4FA7EDB5E001900D922A95BB
:10198000E1F723E636E03093F4052093F30527EFE3
:1019900037E03093F6052093F5052CE1E6E2F2E01E
:1019A000DE01A357BF4F01900D922A95E1F7909366
:1019B000320680933106109233061092340610924C
:1019C000350610923606109237061092380610929D
:1019D000390610923A068CE1FE01E357FF4FADE065
:1019E000B6E001900D928A95E1F78DE696E090932E
:1019F0002A068093290687E598E090932C06809329
:101A00002B06EDE8F4E010A211A212A213A214AA70
:101A100015AA16AA17AA10AE11AE12AE13AE14AEC6
:101A200015AE16AE17AE1092CD041092CE041092E1
:101A3000CF041092D0041092D1041092D2041092CC
:101A4000D3041092D4041092D5041092D6041092AC
:101A5000D7041092D80411E01093D9041093DA043B
:101A60001093DB041093DC041093DD041093DE0468
:101A70000E9465096093DF047093E0048093E104A1
:101A80009093E2040E9465096093E3047093E40478
:101A90008093E5049093E6040E9465096093E7044F
:101AA0007093E8048093E9049093EA041093EB04A4
:101AB000ECEEF4E086E0DF011D928A95E9F71092E2
:101AC000F2041092F3041092F4041092F5041093AF
:101AD000F60460E08EE10E941F0260E08FE10E9448
:101AE0001F0260E08CE10E941F0260E08DE10E9415
:101AF0001F0260E08AE10E941F0260E08BE10E9409
:101B00001F020E94650986E7E82E84E0F82EF7019F
:101B10001182108280E090E0A0E4B0E4828393839D
:101B2000A483B583168317831087118712871387C1
:101B30001487158616861786108A118A128A0E94C3
:101B40006509F701638B748B858B968BC855DF4FC6
:101B50000FB6F894DEBF0FBECDBFDF91CF911F91BE
:101B60000F91FF90EF900895789484B5826084BDC2
:101B700084B5816084BD85B5826085BD85B5816091
:101B800085BD80916E00816080936E00109281000F
:101B900080918100826080938100809181008160CA
:101BA000809381008091800081608093800080918B
:101BB000B10084608093B1008091B0008160809317
:101BC000B00080919100826080939100809191009B
:101BD000816080939100809190008160809390005B
:101BE0008091A10082608093A1008091A10081601A
:101BF0008093A1008091A00081608093A0008091DB
:101C00002101826080932101809121018160809374
:101C100021018091200181608093200180917A00D0
:101C2000846080937A0080917A00826080937A0049
:101C300080917A00816080937A0080917A00806838
:101C400080937A001092C100E091E903F091EA03D9
:101C500022E02083E091E503F091E6031082E09119
:101C6000E703F091E80380E180831092F103E091B3
:101C7000ED03F091EE0396E09083E091EB03F09199
:101C8000EC03808180618083E091EB03F091EC03B1
:101C9000808188608083E091EB03F091EC03808188
:101CA00080688083E091EB03F091EC0380818F7D6D
:101CB0008083E0914C03F0914D032083E091480331
:101CC000F09149031082E0914A03F0914B0387E6BB
:101CD000808310925403E0915003F091510390835C
:101CE000E0914E03F0914F03808180618083E09109
:101CF0004E03F0914F03808188608083E0914E0312
:101D0000F0914F03808180688083E0914E03F091D1
:101D10004F0380818F7D8083E8E0F3E089E1DF017C
:101D20001D928A95E9F762E08AE10E941F0261E054
:101D30008BE10E941F0261E08DE10E941F0261E0C1
:101D40008BE10E94930160E08DE10E94930110926B
:101D5000990410929A0410929B0410929C04109281
:101D60009D0410929E0410929F041092A0048BED8B
:101D70009FE0A9ECB0E48093A1049093A204A09307
:101D8000A304B093A4048AE999E9A9E1B0E480939B
:101D9000A5049093A604A093A704B093A80480E0A0
:101DA00090E0A0E8BEE38093A9049093AA04A093D6
:101DB000AB04B093AC041092AD041092AE04109238
:101DC000AF041092B00487E796E00E94820587ED89
:101DD00096E00E94820587E397E00E94820587E9EA
:101DE00097E00E94820587EF97E00E94820587E5D1
:101DF00098E00E9482058CE30E943203EC018DE39F
:101E00000E943203C81BD90BD0932203C093210335
:101E10007724739482E0882E912CC1E0D0E08091E9
:101E20002B03811116C00E9449038B019C01609312
:101E300023031093240380932503309326031092E9
:101E40002703109228031092290310922A037092FC
:101E50002B030E9449039B01AC0160E070E080E02D
:101E600090E0A0902303B0902403C0902503D0906D
:101E70002603E0902703F090280300912903109196
:101E80002A030E94C3120E94341120E030E04AE786
:101E900055E40E944A1087FDDCCF0E9449038B0164
:101EA0009C016093230310932403809325033093B4
:101EB00026031092270310922803109229031092F0
:101EC0002A038CE30E9432038C018DE30E943203CB
:101ED000B801681B790B8091210390912203681B44
:101EE000790B072E000C880B990B0E94F9102AE938
:101EF00039E949E95EE30E944E120E94C1106B016C
:101F0000B4016C197D09072E000C880B990B0E94F7
:101F1000F910D0932405C093230560932505709391
:101F200026058093270590932805D0933206C09309
:101F30003106609333067093340680933506909390
:101F40003606B2E0CB0ED11CB601DD0C880B990B26
:101F50000E94F910D093FC05C093FB056093FD052A
:101F60007093FE058093FF0590930006D0935A0569
:101F7000C093590560935B0570935C0580935D0584
:101F800090935E0587EF94E00E94BF058DE295E097
:101F90000E94BF0583E695E00E94BF0589E995E0B0
:101FA0000E94BF058FEC95E00E94BF0585E096E09A
:101FB0000E94BF050E947B0432CF5058BB27AA273E
:101FC0000E94F50F0C940F120E94011238F00E942B
:101FD000081220F039F49F3F19F426F40C94FE11F6
:101FE0000EF4E095E7FB0C94EA11E92F0E94201211
:101FF00058F3BA17620773078407950720F079F43E
:10200000A6F50C9442120EF4E0950B2EBA2FA02DDB
:102010000B01B90190010C01CA01A0011124FF2795
:10202000591B99F0593F50F4503E68F11A16F04090
:10203000A22F232F342F4427585FF3CF469537958F
:102040002795A795F0405395C9F77EF41F16BA0B54
:10205000620B730B840BBAF09150A1F0FF0FBB1F02
:10206000661F771F881FC2F70EC0BA0F621F731F4B
:10207000841F48F4879577956795B795F7959E3FA8
:1020800008F0B0CF9395880F08F09927EE0F979539
:10209000879508950E94C61108F481E008950E9472
:1020A00063100C940F120E94081258F00E94011243
:1020B00040F029F45F3F29F00C94EA1151110C947F
:1020C00043120C94FE110E94201268F39923B1F37D
:1020D000552391F3951B550BBB27AA27621773074E
:1020E000840738F09F5F5F4F220F331F441FAA1FE2
:1020F000A9F335D00E2E3AF0E0E832D0915050409E
:10210000E695001CCAF72BD0FE2F29D0660F771F4B
:10211000881FBB1F261737074807AB07B0E809F031
:10212000BB0B802DBF01FF2793585F4F3AF09E3FB6
:10213000510578F00C94EA110C9443125F3FE4F3DC
:10214000983ED4F3869577956795B795F7959F5FF9
:10215000C9F7880F911D9695879597F90895E1E045
:10216000660F771F881FBB1F621773078407BA07A4
:1021700020F0621B730B840BBA0BEE1F88F7E095FF
:1021800008950E94C8106894B1110C9443120895E8
:102190000E94281288F09F5798F0B92F9927B751BD
:1021A000B0F0E1F0660F771F881F991F1AF0BA95FB
:1021B000C9F714C0B13091F00E944212B1E0089505
:1021C0000C944212672F782F8827B85F39F0B93FF7
:1021D000CCF3869577956795B395D9F73EF49095AE
:1021E0008095709561957F4F8F4F9F4F0895E8942C
:1021F00009C097FB3EF490958095709561957F4F4F
:102200008F4F9F4F9923A9F0F92F96E9BB279395FC
:10221000F695879577956795B795F111F8CFFAF40C
:10222000BB0F11F460FF1BC06F5F7F4F8F4F9F4F3D
:1022300016C0882311F096E911C0772321F09EE89B
:10224000872F762F05C0662371F096E8862F70E001
:1022500060E02AF09A95660F771F881FDAF7880FDB
:102260009695879597F90895E894F92F96EBFF23B3
:1022700081F0121613061406440B9395F695879574
:102280007795679557954040FF23B9F71BC099276D
:102290000895882351F49850D2F7872B762F652F15
:1022A000542F432F322F20E0B1F3121613061406D9
:1022B000440B88233AF09A95440F551F661F771FE9
:1022C000881FCAF755234AF4440F551F11F460FFC5
:1022D00004C06F5F7F4F8F4F9F4F880F96958795F4
:1022E00097F908950E94011220F019F00E94081237
:1022F00050F40C94FE110C944312E92F0E9420120A
:1023000088F35523B1F3E7FB62177307840795073A
:10231000A8F189F3E92FFF2788232AF03197660F68
:10232000771F881FDAF7952F5527442332F09150F5
:102330005040220F331F441FD2F7BB27E91BF50B78
:10234000621B730B840BB109B1F222F4620F731F8D
:10235000841FB11D31972AF0660F771F881FBB1F9E
:10236000EFCF9150504062F041F0882332F0660F79
:10237000771F881F91505040C1F793950C94F0112E
:102380008695779567959F5FD9F7F7CF990F0008E6
:10239000550FAA0BE0E8FEEF16161706E807F90737
:1023A000C0F012161306E407F50798F0621B730BD2
:1023B000840B950B39F40A2661F0232B242B252B53
:1023C00021F408950A2609F4A140A6958FEF811DF6
:1023D000811D089597F99F6780E870E060E0089597
:1023E0009F3F31F0915020F4879577956795B79589
:1023F000880F911D9695879597F908959FEF80EC2A
:10240000089500240A94161617061806090608955A
:1024100000240A9412161306140605060895092EC0
:102420000394000C11F4882352F0BB0F40F4BF2B2F
:1024300011F460FF04C06F5F7F4F8F4F9F4F08956F
:1024400057FD9058440F551F59F05F3F71F0479565
:10245000880F97FB991F61F09F3F79F0879508954A
:10246000121613061406551FF2CF4695F1DF08C069
:10247000161617061806991FF1CF86957105610586
:1024800008940895E894BB2766277727CB0197F92E
:1024900008950E94C61108F48FEF08950E946112FA
:1024A0000C940F120E94011238F00E94081220F0C2
:1024B000952311F00C94EA110C94FE1111240C9444
:1024C00043120E94201270F3959FC1F3950F50E0C4
:1024D000551F629FF001729FBB27F00DB11D639FD6
:1024E000AA27F00DB11DAA1F649F6627B00DA11D7C
:1024F000661F829F2227B00DA11D621F739FB00D22
:10250000A11D621F839FA00D611D221F749F332791
:10251000A00D611D231F849F600D211D822F762F2A
:102520006A2F11249F5750409AF0F1F088234AF007
:10253000EE0FFF1FBB1F661F771F881F9150504073
:10254000A9F79E3F510580F00C94EA110C944312B8
:102550005F3FE4F3983ED4F3869577956795B795FA
:10256000F795E7959F5FC1F7FE2B880F911D969514
:10257000879597F90895EE0FFF1F881F8BBF07906F
:10258000F691E02D19942A193B094C095D096E0951
:0C2590007F09800B910B0895F894FFCF99
:10259C00000000007105DD047B0500000000D30481
:1025AC00F9047B05000000000E046E039B035B0422
:1025BC00CC03AA03BE036F12833B0000803F0AD7F3
:1025CC00A33B0000C040000080410000804100009F
:1025DC00803F29002B00090001000C0028002A0074
:1025EC00080001000C0025002700070001000C006A
:1025FC0026002400060001000C0021002300050029
:10260C0001000C0020002200040001000C000E0050
:10261C000F00010080DA44B3916B3BA8046F128366
:10262C003B6F12833B0A000B00010020DA4460F977
:10263C006B3BAC046F12833B6F12833B4400450031
:10264C00010020DC4483D4693BB5046F12833B6FDB
:10265C0012833B42004300010080DB44F57E6A3B61
:10266C00BC046F12833B6F12833B40004100FF00A0
:10267C0000DC4486F6693BC6046F12833B6F128301
:10268C003B3E003F00FF0000DC4486F6693BCF0474
:08269C006F12833B6F12833BB8
:00000001FF
